:02000004080AE8
:1000000000000A08C4630A08000006000600050193
:0800100004027E05000000005F
:04001800905B0A08E7
:1000200009480A4908B5884205D0094A824202D0E7
:10003000121A03F029FF0748074A0021121A03F099
:100040002EFF064808BD00BF00000020E4620A0839
:10005000B8000020B8000020CC070020CC0700200A
:1000600070B501F063FD074B074C1E46E41AA40867
:100070000025A54204D056F8253098470135F8E709
:1000800070BD00BF8C620A08D8620A0800F028B868
:1000900008B500F06DF8BDE8084001F009BD01F0B9
:1000A000C5BA01F0CBBA0078B0FA80F040097047C9
:1000B00001230370704700001FB50A4668460749D0
:1000C00001F0E2FB02F0F6F8009901F03AFC684614
:1000D00001F05AFB05B05DF804FB00BFA45B0A0801
:1000E00013B5124C02F0E6F84FF4165102F0C8F8BE
:1000F000204600F07FFD204600F0A0FD01210C48C5
:1001000000F02EFD0B4B0021188802F019FB022194
:10011000142002F015FB0023019300931A460649B0
:10012000064801F06BFA02B010BD00BFC00000200D
:10013000C800002000000020B9000A08BE5B0A08C1
:1001400038B5046805467CB16368013B63605BB900
:10015000236820469B689847A368013BA3601BB9AE
:1001600023682046DB689847284638BD0000000019
:100170002DE9F0418EB001F0BBF8734C2368C01A32
:10018000724B984208D901F029FA10B1002001F011
:100190003DFA01F0ADF8206002F08CF80A222168E7
:1001A00001F0F8FB6A4906A801F035FB694800F048
:1001B000F6FC03F0E7FB684C2060684800F096FD11
:1001C00002F078F8664901F0BCFB644800F078FD65
:1001D00000283FD0614800F025FD06465F4800F04A
:1001E0001BFD05465D4800F023FD8046304602F0C9
:1001F00077FF064620680F4602F072FFCDE9040142
:10020000404602F06DFFCDE90201284602F068FF8A
:1002100032463B46CDE900010AA8524901F034FBC1
:100220000AA906A801F027FB0AA801F0ADFA02F01E
:1002300041F84D4901F085FB4C4B0AA81B78069A02
:100240008DF800304A493C2301F0DEFD0BA8FFF792
:1002500077FF1FE002F02EF833A7D7E90067454982
:1002600001F06FFB206802F03BFF00220023CDE984
:100270000401CDE902233B4932463B460AA8CDE9B9
:10028000006701F001FB0AA906A801F0F4FA0AA828
:1002900001F07AFA02F00EF8069901F052FB364BA3
:1002A000188802F077FA002833D102F003F83349B6
:1002B00001F047FB206802F013FF1DA3D3E90023E0
:1002C000CDE90401CDE902231BA3D3E900232C4986
:1002D000CDE900231AA3D3E900230AA801F0D4FA38
:1002E0000AA906A801F0C7FA0AA801F04DFA01F020
:1002F000E1FF069901F025FB1C4B0AA81B78069A22
:100300008DF800301A493C2301F07EFD0BA8FFF761
:1003100017FF4FF47A7001F069FB06A801F034FA78
:100320000EB0BDE8F08100BFA245B6F3FD3F8F409F
:10033000C3F5285C8FC2164058207A5226394040B7
:1003400050C24CDBBFD35BC0C4000020005C26055C
:100350002A5E0A08C8000020BC000020C00000205F
:10036000D05B0A08E15B0A08DD5B0A08C1000020D7
:10037000CC5B0A08185C0A0800000020295C0A0807
:10038000395C0A0808B5074B01221A7000F040FFDB
:1003900000F0AEFF044B1860BDE80840034800F0D1
:1003A00027BC00BFC1000020C4000020C000002006
:1003B00070B590F84A5004460DB1002070BDC06C75
:1003C00003681B6998470028F7D0E06C03685B69F5
:1003D0009847C0B20A28144B144A16D119781468E9
:1003E000C9B265541668124D124C1349AE4214BF7F
:1003F0000C600E604FF000011970104908BF1460C6
:100400004FF0010418BF15600C7014681A78D2B24E
:10041000511CC9B21970A0541B78772B82BF024BB4
:1004200077221A7070BD00BFD0000020CC000020E1
:10043000D100002049010020C4010020C10100209A
:10044000154A00231370154A15491370154AC364E1
:1004500011601549154A80F84A30116080F83D3026
:1004600080F83C3043710371C37083704370037034
:1004700080F83A3080F8393080F8383080F83B30F6
:10048000C380002343630363C362836243620362E6
:10049000C3608360704700BFC1010020D00000200E
:1004A000D1000020CC00002049010020C401002020
:1004B00038B50D46FFF7C4FFC56438BD08B5C06C3C
:1004C00001F0B6FFBDE808400A2001F08FBAC06C09
:1004D00001F037BA014B1878704700BFC101002006
:1004E000024B00221A70024B18687047C1010020AD
:1004F000C40100202F290AD9392901D8303904E054
:10050000A1F14103052B02D83739C8B2704700204A
:10051000704700002DE9FF47044608460D4603F0EA
:1005200020FD071FEB5D2A2B19D12E1816F8031C8E
:100530002046FFF7DFFF000182B216F8021C2046BA
:10054000FFF7D8FF104480B202239F4204D9EA5C2F
:1005500001335040DBB2F8E708B10020E8E2B649C9
:10056000284603F02EFD30B9B449284603F029FD92
:10057000002800F073812C21284603F0C1FC451CA3
:10058000284603F063FC03F0F7F8064603F03EFC50
:1005900042F21072B0FBF2F3237002FB13036427E4
:1005A000B3FBF7F36370B0FBF7F307FB1300A07026
:1005B000304602F095FD0022A14B02F0ABFAA14BB0
:1005C000002202F0E1FD03F0B7F82C21E08028467C
:1005D00003F096FC437805462C2B00F1010653D01E
:1005E0003146022201A803F0D9FC4FF0000A0DF1B8
:1005F000100901A809F80AAD03F02FFC924BE91C81
:1006000003FB00F80222AE1D01A803F0C7FC042280
:100610003146484603F0C2FC01A88DF80AA003F059
:100620001CFC32254543032095FBF0F5874808EB79
:100630000503236198FBF0F003F0A8F980462846F3
:1006400003F0A4F9824903F0F5F90146404603F0AE
:10065000E9F88049A060804603F0A0FA03F0B0FBFF
:100660000546784303F092F90146404603F0D8F876
:10067000794903F093FA0746284603F087F90146C3
:10068000384603F0CFF8A0612C21304603F038FC47
:1006900003465A7801302C2A10D0532A02BFA2698F
:1006A00002F10042A2615B784E2B05D0532B03D0A0
:1006B0002C2B7FF452AF002384F838302C2103F028
:1006C0001FFC437805462C2B00F1010651D0314622
:1006D000032201A803F062FC4FF0000801A88DF886
:1006E000078003F0BAFB584F291D47430222EE1D35
:1006F00001A803F053FC042231460DF1060003F07B
:100700004DFC01A88DF80A8003F0A7FB3225454374
:10071000032095FBF0F54D487B19636197FBF0F0E2
:1007200003F034F90746284603F030F9484903F04E
:1007300081F90146384603F075F84649E0600746FE
:1007400003F02CFA03F03CFB05466420684303F0F9
:100750001DF90146384603F063F83F4903F01EFADD
:100760000746284603F012F90146384603F05AF8C6
:10077000E0612C21304603F0C3FB03465A78013078
:100780002C2A10D0572A02BFE26902F10042E2612E
:100790005B78572B05D0452B03D02C2B7FF4DDAE97
:1007A000002384F839302C2103F0AAFB4378451C40
:1007B0002C2B04D0284603F04CFB84F83C00284640
:1007C0002C2103F09DFB4378451C2C2B04D028469C
:1007D00003F03FFB84F83D0028462C2103F090FBFA
:1007E0004378451C2C2B05D0284603F02FFB02F044
:1007F000C3FF606328462C2103F082FB4378451C2D
:100800002C2B05D0284603F021FB02F0B5FF6062D7
:100810002C21284603F074FB2C21013003F070FBDF
:1008200043782C2B00F08381013003F00FFB02F0A2
:10083000A3FF20627BE100BF6F5C0A08765C0A08B8
:100840000000F03F00408F4080969800A086010095
:100850009C53C9360000C84200007042B649284681
:1008600003F0AFFB30B9B549284603F0AAFB0028D6
:100870003FF473AE2C21284603F042FB451C28466A
:1008800003F0E4FA02F078FF064603F0BFFA42F202
:100890001072B0FBF2F3237002FB13036422B3FB6C
:1008A000F2F36370B0FBF2F302FB1300A07030466A
:1008B00002F016FC0022A24B02F02CF9A14B002200
:1008C00002F062FC02F038FF2C21E080284603F0A1
:1008D00017FB4378412B01D1012303E0562B7FF412
:1008E0003CAE002384F83B302C21013003F008FBA0
:1008F000437805462C2B00F1010652D031460222E6
:1009000001A803F04BFB4FF000090DF1100801A8FE
:1009100008F80A9D03F0A1FA8B4FE91C4743022215
:10092000AE1D01A803F03AFB04223146404603F015
:1009300035FB01A88DF80A9003F08FFA3225454364
:10094000032095FBF0F581487B19236197FBF0F0BC
:1009500003F01CF80746284603F018F87C4903F01A
:1009600069F80146384602F05DFF7A49A060074603
:1009700003F014F903F024FA05466420684303F0F9
:1009800005F80146384602F04BFF734903F006F9BB
:100990000746284602F0FAFF0146384602F042FFB9
:1009A000A0612C21304603F0ABFA03465A7801309F
:1009B0002C2A10D0532A02BFA26902F10042A26180
:1009C0005B784E2B05D0532B03D02C2B7FF4C5AD79
:1009D000002384F838302C2103F092FA437805463E
:1009E0002C2B00F1010651D03146032201A803F05F
:1009F000D5FA4FF0000801A88DF8078003F02DFA12
:100A0000514F291D47430222EE1D01A803F0C6FAEB
:100A1000042231460DF1060003F0C0FA01A88DF85A
:100A20000A8003F01AFA32254543032095FBF0F5BE
:100A300046487B19636197FBF0F002F0A7FF074679
:100A4000284602F0A3FF424902F0F4FF014638466F
:100A500002F0E8FE3F49E060074603F09FF803F02C
:100A6000AFF905466420684302F090FF014638461E
:100A700002F0D6FE384903F091F80746284602F006
:100A800085FF0146384602F0CDFEE0612C2130465C
:100A900003F036FA03465A7801302C2A10D0572A30
:100AA00002BFE26902F10042E2615B78572B05D098
:100AB000452B03D02C2B7FF450AD002384F8393024
:100AC0002C2103F01DFA4378451C2C2B05D0284619
:100AD00003F0BCF902F050FEA06228462C2103F07E
:100AE0000FFA4378451C2C2B05D0284603F0AEF9AD
:100AF00002F042FEE0622C21284603F001FA43781E
:100B00002C2B14D0013003F0A1F902F015FE42F2B3
:100B10001072B0FBF2F3637102FB13036422B3FBA8
:100B2000F2F32371B0FBF2F302FB1300E07001203B
:100B300004B0BDE8F08700BF7D5C0A08845C0A0849
:100B40000000F03F00408F4080969800A086010092
:100B50009C53C9360000C8420000704200F058BBE8
:100B600010B50C4601F064FE01F0E0FC01F060FEFF
:100B7000382101F0F3FC01F05BFEA100036841F0B5
:100B800002019B6801F0FE01984701F051FE01F05F
:100B9000ECFCBDE810404FF4FA7000F027BF38B508
:100BA00001F046FE0122392101F0CFFC0128054663
:100BB00002D04FF6FF7038BD01F03AFE03685B6962
:100BC0009847044601F034FE2A46382101F0BDFC66
:100BD0000128EED101F02CFE0368A4B25B699847AE
:100BE00040EA042080B238BD00F012BB7047704765
:100BF0007047000010B5074C1821204600F0E0F9BE
:100C00002046092100F0CBF92046BDE81040012123
:100C100000F0ADB9C8010020014B9869704700BFD2
:100C2000F4010020014BD869704700BFF401002097
:100C3000014B986A704700BFF401002038B50121CC
:100C4000062001F07DFD0021062001F08AFD4FF411
:100C500016511648FFF732FC15491448FFF737FCC8
:100C60004FF4FA7000F0C2FE12491048FFF72FFC53
:100C70004FF4FA7000F0BAFE0F490C48FFF727FC5A
:100C80004FF4FA7000F0B2FE0C4D002401F0D6FBD8
:100C90000368295D9B68013498470C2CF6D14FF40A
:100CA000FA70BDE8384000F0A1BE00BFF40100209A
:100CB000F25C0A08245D0A08355D0A080400002079
:100CC00070B5094E0021B06803F048F8054648B9F0
:100CD0000021F0684FF0010403F040F800B12C4609
:100CE000E0B270BD002070BDF401002008B501F035
:100CF000A5FB03681B69984778B10848FFF758FBC4
:100D00000648FFF7E7FB0028F1D00448FFF7E8FBAF
:100D100001460248FFF7FEFBE9E708BDF4010020A9
:100D200010B504462C2101F0A8FD204610BD00009E
:100D300010B500F06DFA01F081FB084C014608483F
:100D4000FFF7B6FB0C21204600F034F82046BDE842
:100D50001040044A044901F08BBD00BFC8010020C7
:100D6000F4010020B8000020EF0B0A0800F050BA90
:100D700000F04EBA38B50C46054628220021204620
:100D800003F08DF80B220849204603F007F90023F1
:100D90000122E372E260A96963620023216162615A
:100DA000A361E361236238BD445D0A080368C9B2E8
:100DB0009B681847064A417702604FF0FF32826114
:100DC0008277FF2180F820201122C177426270478C
:100DD000545D0A082DE9F04190F9203005460133B1
:100DE0000F4604D11648BDE8F04100F0B7BC072615
:100DF00000244FF0010895F92000002180B201F095
:100E0000B0FC95F91E0008FA06F1394080B201F0F5
:100E1000A8FC95F92000012180B201F0A2FC95F90F
:100E20001F00640080B2E4B201F0B4FC08B144F0E9
:100E3000010416F1FF36DED22046BDE8F08100BF86
:100E4000D806002010B5084C0121204600F047FCD0
:100E500006492046012200F05FFC2046BDE8104014
:100E6000002100F03FBC00BFD806002020A10700F1
:100E700070B590F91D30044601330E46154616D163
:100E800001F0D6FC217F01F065FB01F0D1FC036885
:100E900031469B68984701F0CBFC036829469B6864
:100EA000984701F0C5FCBDE8704001F05EBB90F9C9
:100EB0002030013301D1FFF7C5FF94F91D00002157
:100EC00080B201F04EFC06F07F012046FFF782FF62
:100ED00029462046FFF77EFF94F91D00012180B2CC
:100EE000BDE8704001F03DBC38B590F91D300446B6
:100EF00001330D461DD101F09BFC94F91C1001F04B
:100F00002DFB01F095FC036829469B68984701F08A
:100F10008FFC01F02AFB01F08BFC012294F91C10DC
:100F200001F013FB01F084FC03685B699847C5B2CC
:100F30001BE090F92030013301D1FFF783FF94F9D2
:100F40001D00002180B201F00CFC45F0800120461C
:100F5000FFF740FF00212046FFF73CFF054694F9CC
:100F60001D00012180B201F0FCFB284638BD38B5D8
:100F70000D4623210446FFF7B7FF20F0300040EA7A
:100F80000512D2B22046BDE838402321FFF770BFDA
:100F900008B52321FFF7A8FFC0F3011008BD38B53D
:100FA0000D4620210446FFF79FFF00F00F0040EAA6
:100FB0000512D2B22046BDE838402021FFF758BFC5
:100FC00010B50446017790F91D00421C04D101F0D0
:100FD0002FFC01F0ABFA21E0012180B201F0C1FB4E
:100FE00094F91D00012180B201F0AAFB94F92000C0
:100FF000431C03D11A4800F06DFB0FE0012180B2C1
:1010000001F09EFB94F91E00012180B201F098FBD3
:1010100094F91F00002180B201F092FB0F212046BD
:10102000FFF762FF332819D1072220462021FFF75E
:101030001FFF20460721FFF7B2FF20468822232109
:10104000FFF716FF204610222221FFF711FF20464E
:1010500080221F21FFF70CFF012010BD002010BDD2
:10106000D806002038B590F91D300446013343D12D
:1010700001F0DEFB94F91C1001F070FA01F0D8FBCE
:10108000A821FFF793FE01F0D3FB01F06EFA01F007
:10109000CFFB062294F91C1001F057FA01F0C8FBAF
:1010A00003685B699847E08001F0C2FB03685B69F5
:1010B0009847E38843EA0020E08001F0B9FB036829
:1010C0005B699847208101F0B3FB03685B6998472F
:1010D000238943EA0020208101F0AAFB03685B69B1
:1010E0009847608101F0A4FB03685B6998476389B6
:1010F00043EA002060813CE090F92030013301D1C7
:10110000FFF7A0FE94F91D00002180B201F029FB39
:10111000E8212046FFF75EFEFF212046FFF75AFE3A
:10112000FF21E0802046FFF755FEE388FF2143EAD8
:101130000020E0802046FFF74DFEFF212081204661
:10114000FFF748FE2389FF2143EA00202081204643
:10115000FFF740FEFF2160812046FFF73BFE6389D9
:10116000012143EA0020608194F91D0080B201F062
:10117000F8FA2046FFF70CFF032809D002280AD00E
:1011800001280BD0002843F6FC7018BF012007E0AF
:101190004FF4006004E04FF4805001E041F6FE702F
:1011A00002F0F4FB0546B4F9060002F0EFFB294615
:1011B00002F0F4FCE060B4F9080002F0E7FB294615
:1011C00002F0ECFC2061B4F90A0002F0DFFB2946D2
:1011D00002F0E4FC606138BD70B50C46054624267B
:1011E00032460021204602F05AFE2660AB692846AE
:1011F00063600123A36000232361FFF733FFEB68E3
:1012000063612B69A3616B69E36170BD00F000B895
:1012100008B5024B1B681B68019308BDB0010608A6
:1012200008B5024B1B689B68019308BDB001060816
:1012300008B5024B1B68DB68019308BDB0010608C6
:1012400008B5024B1B681B69019308BDB001060875
:1012500008B5024B1B685B69019308BDB001060825
:1012600008B5024B1B681B68019308BDB401060852
:1012700008B5024B1B689B68019308BDB4010608C2
:1012800008B5024B1B68DB68019308BDB401060872
:1012900008B5024B1B681B69019308BDB401060821
:1012A00008B5024B1B685B69019308BDB4010608D1
:1012B00008B5024B1B68DB69019308BDB401060841
:1012C00008B5024B1B681B6A019308BDB4010608F0
:1012D00008B5024B1B685B6A019308BDB4010608A0
:1012E00008B5024B1B685B68019308BD9C010608AA
:1012F00008B5024B1B685B69019308BD9C01060899
:1013000008B5024B1B681B6B019308BDD001060892
:1013100008B5024B1B689B69019308BDC401060810
:1013200008B5024B1B685B6A019308BDC40106083F
:1013300008B5024B1B689B6A019308BDC4010608EF
:1013400008B5024B1B68DB6A019308BDC40106089F
:1013500008B5024B1B681B6B019308BDC40106084E
:1013600008B5024B1B685B6B019308BDC4010608FE
:1013700008B5024B1B689B6B019308BDC4010608AE
:1013800008B5024B1B681B6C019308BDC40106081D
:1013900008B5024B1B68DB6C019308BDC40106084D
:1013A00008B5024B1B68DB6C019308BDAC01060855
:1013B00008B5024B1B685B6D019308BDAC010608C4
:1013C00008B5024B1B689B6D019308BDAC01060874
:1013D00008B5024B1B68DB6D019308BDAC01060824
:1013E00008B5024B1B681B6E019308BDAC010608D3
:1013F00008B5024B1B685B6E019308BDAC01060883
:1014000008B5024B1B689B6E019308BDAC01060832
:1014100008B5024B1B68DB6E019308BDAC010608E2
:1014200008B5024B1B681B6F019308BDAC01060891
:1014300008B5024B1B685B6F019308BDAC01060841
:1014400008B5034B1B68D3F88030019308BD00003A
:10145000AC01060808B5024B1B681B68019308BD68
:10146000D801060808B5024B1B685B68019308BDEC
:10147000D801060808B5024B1B681B69019308BD1B
:10148000D801060808B5024B1B685B69019308BDCB
:10149000D801060808B5024B1B689B69019308BD7B
:1014A000D801060808B5024B1B68DB69019308BD2B
:1014B000D801060808B5024B1B681B6A019308BDDA
:1014C000D801060808B5024B1B689B6C019308BD48
:1014D000C001060808B5024B1B685B68019308BD94
:1014E000A401060808B5024B1B685B69019308BD9F
:1014F000A401060808B5024B1B68DB6C019308BD0C
:10150000A401060808B5024B1B685B6D019308BD7A
:10151000A401060808B5034B1B68D3F8903001936B
:1015200008BD0000A401060808B5034B1B68D3F8EA
:101530009C30019308BD0000A401060808B5024BC9
:101540001B685B68019308BDC801060808B5024B1B
:101550001B689B68019308BDC801060808B5024BCB
:101560001B68DB68019308BDC801060808B5024B7B
:101570001B681B69019308BDC801060808B5024B2A
:101580001B685B69019308BDC801060808B5024BDA
:101590001B689B69019308BDC801060808B5024B8A
:1015A0001B68DB69019308BDC801060808B5024B3A
:1015B0001B681B6A019308BDC801060808B5024BE9
:1015C0001B681B6B019308BDC801060808B5024BD8
:1015D0001B685B6B019308BDC801060808B5024B88
:1015E0001B685B69019308BDCC01060808B5024B76
:1015F0001B681B6A019308BDCC01060808B5024BA5
:101600001B685B6A019308BDCC01060808B5024B54
:101610001B68DB6A019308BDCC01060808B5024BC4
:101620001B68DB6B019308BDCC01060808B5024BB3
:101630001B681B68019308BDA001060808B5024B92
:101640001B685B68019308BDA001060808B5024B42
:101650001B689B68019308BDA001060808B5024BF2
:101660001B685B6A019308BDA001060808B5024B20
:101670001B68DB6A019308BDA001060808B5024B90
:101680001B681B6B019308BDA001060808B5024B3F
:101690001B68DB6B019308BDA0010608704710B5FD
:1016A0000446102101F0E9F8204610BD70B504464B
:1016B0000E46074B0025036040F80C5FFFF720FE45
:1016C00030462671FFF7F4FDA560204670BD00BFCF
:1016D000705D0A084FF6FF710079FFF7C1BD007910
:1016E000FFF7C6BD0079FFF7CBBD0000400830B55D
:1016F000186000241868E5B2884206D90134082C25
:1017000002D040081860F5E70725024B5B5D1370B7
:1017100030BD00BF785D0A0870B5044602FB01F5D4
:1017200088B006791422002103A802F0B8FB0B232D
:1017300003A930460022ADF80C30FFF7C9FD02AB1B
:101740000DF1070229460498FFF7D0FF20799DF894
:101750000710FFF79DFD029808B070BD08B500792D
:10176000FFF79EFDC0B208BD0079FFF7A9BD0000DC
:101770004FF6FF72034B0020187058809A80FFF7D5
:10178000A9BE00BF4402002010B504460068FFF760
:1017900055FF204610BD10B50446006808B1FFF79C
:1017A0004DFF00232360A360636010BD38B504467D
:1017B0000D4600680131FFF749FF10B184E82100B0
:1017C000012038BD10B50368044613B143688B424D
:1017D00007D22046FFF7EAFF20B1A3680BB92268C1
:1017E0001370012010BD70B50E4611460446154613
:1017F000FFF7E8FF18B92046FFF7CDFF09E02A46BA
:101800003146A560206802F03FFB2268A3680021F2
:10181000D154204670BD38B50023044603604360B0
:10182000836003730D4639B1084602F09AFB2946DE
:1018300002462046FFF7D7FF204638BD38B505469B
:1018400000680C4660B16A688B689A4206D30968E2
:1018500002F064FBA368AB6000230AE0FFF7EEFE32
:1018600023682B6063686B60A368AB600023236010
:101870006360A36038BD884210B5044601D0FFF70D
:10188000DDFF204610BD00000EB4FFB509AC54F8D2
:10189000047B054623463A46052102A80194FFF73A
:1018A000DDFE06460B492846FFF7B5FF31462846C0
:1018B000FFF788FF286830B123463A46711C01942F
:1018C000FFF7CCFEA860284604B0BDE8F04003B0A6
:1018D000704700BF2A5E0A08F8B506460D468F1805
:1018E0000024BD420CD0336815F8011B9B683046BC
:1018F0009847002801DB0444F3E7002C08BF0446A6
:101900002046F8BD70B505460C46084649B102F0C0
:1019100028FB2B68024621462846BDE87040DB685C
:10192000184770BD03689B68184738B50D210546F8
:10193000FFF7F8FF0A2104462846FFF7F3FF20448B
:1019400038BD38B50546FFF7DDFF04462846FFF7EA
:10195000ECFF204438BD012A98BF0A2230B50B465F
:101960008BB000218DF824100DF12304B3FBF2F5A8
:1019700005FB1233DBB2092B94BF30333733DBB2B4
:10198000214604F801392B46002DEFD1FFF7BAFFAD
:101990000BB030BD10B422B90368C9B29B6810BC4B
:1019A0001847D2B210BCFFF7D6BFFFF7F3BF002332
:1019B0001A4619464068FFF7E1BD0B68036013B192
:1019C0005A6801325A607047014A024B1A607047E8
:1019D000F65D0A084C020020024B1A68024B1A609E
:1019E000704700BF10000020500200200021FFF7C8
:1019F00079BD10B58368044613B1032201469847A8
:101A0000204610BD10B50446FFF7F3FF204610BD79
:101A100013B50B46044603C88DE8030093E80300A2
:101A200084E803009DE8030083E8030002B010BDD2
:101A3000034800238360034A034900F019BF00BF35
:101A400054020020B8000020051A0A0808B5144BFB
:101A500033B100F02FFC03681B699847002816DC9F
:101A6000104B33B100F0EAFC03681B69984700286B
:101A700010DC0D4B0BB1AFF300800C4B7BB100F0D1
:101A800055FC03681B699847002806DC08BDAFF3C6
:101A90000080E5E7AFF30080EBE7AFF3008008BD1F
:101AA0000000000000000000000000000000000036
:101AB00008B5FFF7CBFFFFF71BFC014B186008BD13
:101AC000F80600200248034A0349121A02F0DCB962
:101AD0000040024004400240E0620A0807B50023CB
:101AE00000931A466FF07701FFF71EFD03B05DF813
:101AF00004FB000007B543880A2B08D0502B09D1FE
:101B0000094B1B683BB103B05DF804EB1847FFF7C6
:101B1000E5FF06E0002300931A466FF07701FFF718
:101B200003FD03B05DF804FB6402002038B5104CDF
:101B3000104D2368AB42104B0CBF012200221A70DB
:101B400002D0FFF7BFFF2560FFF7CAFB044602F093
:101B5000AFF90A4B13B12046AFF3008000210748CC
:101B6000FFF75CFDBDE8384000210548FFF7D2BC17
:101B7000004002401E1C279A68020020000000005E
:101B8000F51A0A0870470020704710B50446102166
:101B900000F073FE204610BD08B508B1FFF7F5FF51
:101BA00008BD002202604FF69C72828010B5B1F928
:101BB000044084808A8002680C6804600A6010BD5A
:101BC00010B504460068FFF739FD204610BD38B552
:101BD000C468F4B12378022B03D104F10C00FFF7A1
:101BE000EFFF656835B12846FFF703FF102128464F
:101BF00000F043FEA56835B12846FFF7FAFE102134
:101C0000284600F03AFE2046BDE83840142100F096
:101C100034BE38BD13B5044691E8050000234B607F
:101C20000B602060626001A801930093FEF788FAC0
:101C3000204602B010BDF7B50C4606460F4654F8D4
:101C4000043B02AD45F8083D214601A8FFF7B5FE6B
:101C500029463046FFF7DEFF01A8FEF771FA20465D
:101C6000FEF76EFA3846082100F007FE304603B052
:101C7000F0BD000038B500230446036010200D4677
:101C8000FEF70DFA28B1012343608360024BC56063
:101C900003602060204638BD945E0A08826810B553
:101CA0000AB900F0ECFDC368BDE81040184708B55C
:101CB000006800F11001FFF7F1FF08BD826810B560
:101CC0000AB900F0DCFDC368BDE81040184708B54C
:101CD000006800F11001FFF7F1FF08BD38B50023DF
:101CE00083608B6804460D462BB102229847EB684F
:101CF000E360AB68A360204638BD0000F0B589B052
:101D000004686846FFF74DFF4FF0020200238DF88C
:101D10000830D4E84F3F002B03D1C4E8412F0029FD
:101D2000F7D102D08DF8083063E014F10C0503D030
:101D300069462846FFF735FFBFF35F8F01236370C5
:101D4000BFF35F8F04F10803002053E8006F43E8FE
:101D50000002002AF9D1BFF35F8F002E49D0FFF7B0
:101D6000C9FB20B129463046FFF798FF3AE03146DB
:101D700002A8FFF7B3FFE068B4F9105008B102F011
:101D8000D5F806901020ADF81C50FEF788F90546EE
:101D9000E8B1002787601820FEF781F9044688B172
:101DA0000146876002A8FFF733FE049BA268A36088
:101DB000059B0492E26806A9E36004F11000059215
:101DC000FFF7EFFE0D4B2C60EB600D4BAB6006A8F0
:101DD000FFF7F6FE02A8FFF70CFE0022294609488D
:101DE000FFF790FB3046FFF704FE1021304600F06D
:101DF00044FD6846FFF7E4FE09B0F0BDAF1C0A08D9
:101E0000251F0A0889240A082DE9F04F8BB00646E1
:101E10000F46904699469DF850A0FFF7DFFB07ADAF
:101E2000834630BB4FF62E73059005A92846ADF8C2
:101E30001830FFF7B6FE1420FEF731F9044658B10A
:101E40000223037001234370C0F804B0C0F808B047
:101E500029460C30FFF7A5FE3046214640F8044BDA
:101E6000FFF708FF2846FFF7ABFE05A8FFF7A8FE1F
:101E700052E000240C2314206C60AC600793FEF742
:101E80000EF9014618B1047044704460846004A8DF
:101E90000391FFF7EFFE224B08200893FEF7FFF8AF
:101EA000044628B1039B04A940F8043BFFF785FDD5
:101EB00000955FFA8AF34A46414638460994FFF78F
:101EC00095FB20B9039B5B7803F0FF0283B1039B72
:101ED00004A906A80593FFF770FD05A93046FFF792
:101EE00099FE06A8FEF72CF904A8FEF729F913E0DD
:101EF0004FF69C7305A903A80592ADF81830FFF7BB
:101F0000FDFE05A8FFF75CFE05A80999FFF793FE03
:101F100006A8FEF715F9DAE730460BB0BDE8F08FFA
:101F200095200A08022AF8B5044606D0032A17D0DD
:101F3000012A22D10B6803601FE018200E68FEF70B
:101F4000AEF8054650B13146FFF7C8FE3069B6F924
:101F5000147008B101F0EAFF2861AF8225600CE03F
:101F6000046854B104F11000FFF72AFE2046FFF781
:101F700040FD1821204600F080FC0020F8BD38B557
:101F8000002383608B6804460D462BB102229847DC
:101F9000EB68E360AB68A360204638BD022A70B5E9
:101FA000044606D0032A11D0012A18D10B68036019
:101FB00015E014200E68FEF772F8054620B1314690
:101FC000FFF7DDFF337C2B74256008E0046834B133
:101FD0002046FFF70EFD1421204600F04EFC0020A5
:101FE00070BD0000F0B50C46BFF35F8F87B00023D3
:101FF00050E8006F40E80032002AF9D1BFF35F8F4C
:10200000002E3FD01846FFF775FA074620B121464B
:102010003046FFF753FE2EE0314601A8FFF7AFFF31
:10202000237810208DF81430FEF739F80546D0B12A
:1020300087601420FEF733F8044678B187600146C4
:1020400001A8FFF7E5FC039BA268A360049B039231
:10205000E268E3609DF81430049223740A4B2C600C
:10206000EB600A4BAB6001A8FFF7C3FC00222946D6
:102070000748FFF747FA3046FFF7BBFC1021304610
:1020800000F0FBFB07B0F0BDCF1C0A089D1F0A083B
:1020900089240A0830B5044685B00D4668461146C5
:1020A000FFF7C9FD7CB124B228460DB101F03EFF17
:1020B000029002A96846ADF80C40FFF71FFE02A887
:1020C000FFF77EFD1DE04FF0010200988DF80840FB
:1020D000D0E84F3FA34203D1C0E8412F0029F7D1F8
:1020E00002D08DF808300CE010F10C014FF0010324
:1020F00018BF0373BFF35F8F043000F8033CFFF792
:1021000071FF01A8FEF71CF805B030BD704710B58F
:102110000446182100F0B1FB204610BDF8B50F466B
:1021200000F10806051D002416F8011D0A22384694
:10213000FFF73BFCAE42044407D0002CF4D02E2124
:102140003846FFF7EFFB0444EEE72046F8BD0000F9
:1021500010B50446044B112240F8043B002101F065
:102160009EFE204610BD00BFB05E0A080346074A27
:1021700010B543F8042B01F1100251F8044B9142C1
:1021800043F8044BF9D10A781A7010BDB05E0A0802
:10219000024A41600260042202757047B05E0A087C
:1021A00010B59DF8084044EA032343EA024242EA9C
:1021B000016104234160037510BD000037B5044D73
:1021C00005609DF818500095FFF7EAFF03B030BD99
:1021D000B05E0A0841747047704708B50021007C62
:1021E000FFF758F930EA200028BF4FF0FF3008BD54
:1021F00008B50121007CFFF74DF930EA200028BF27
:102200004FF0FF3008BD08B5007CFFF73BF920EA2E
:10221000E07008BD08B5007CFFF72CF920EAE070FB
:1022200008BD007CFFF746B910B50446142100F044
:1022300024FB204610BD38B50446007C0D46FFF750
:1022400021F9002801DC607C28B12946207CFFF7B9
:1022500029F920EAE07038BD10B504460023636018
:102260004FF47A73A360054B084623600123217461
:1022700063741146FFF7EEF8204610BDC45E0A08ED
:102280000022007CFFF7EEB810B5044614220021AE
:1022900001F005FE054B20466360054BE36040F20C
:1022A000011323818123238210BD00BFF10200208E
:1022B0007002002030B50E4D87B001A8FFF7E4FF93
:1022C000296811F0010410D12846FDF7ECFE60B139
:1022D00001AA21460748FFF7BFFF2846FDF7E8FEA1
:1022E000054A0649034800F0C3FA024807B030BD6A
:1022F0006C020020F4030020B8000020D9210A0855
:1023000010B504461422002101F0C9FD054B2046FA
:102310006360054BE36040F2011323818123238234
:1023200010BD00BFA40400200C04002010B50E4C0A
:1023300086B001A8FFF7E4FF2368DB0710D420462E
:10234000FDF7B1FE60B101AA01210848FFF784FF43
:102350002046FDF7ADFE064A0649044800F088FA1B
:10236000024806B010BD00BF080400209004002001
:10237000B8000020D9210A0870474174704708B599
:10238000007CFEF7FDFF20EAE07008BD08B5007C88
:10239000FEF7CEFF20EAE07008BD08B5007CFEF72E
:1023A000D7FF30EA200028BF4FF0FF3008BD08B546
:1023B000007CFEF7C5FF30EA200028BF4FF0FF3059
:1023C00008BD007CFEF7CCBF10B50446142100F018
:1023D00054FA204610BD70B5457C04460E4625B91A
:1023E000007CFEF7CDFF002805DD3146207CBDE8EE
:1023F0007040FEF795BF284670BD000010B504463A
:1024000008461146002262604FF47A72A260054AC3
:1024100020742260012262741A46FEF779FF20467A
:1024200010BD00BFF45E0A080023007CFEF7B0BFB9
:102430000022FFF7F9BF007CFEF79ABF38B50C4DBC
:10244000296811F0010411D12846FDF72CFE68B16E
:10245000084A2146084B0948FFF7D0FF2846FDF7F8
:1024600027FE074A0749054800F002FA034838BD2D
:102470004006002044060020BC050020A8050020DE
:10248000B800002079230A0810B5836804460BB908
:1024900000F0F5F9C3689847A3681BB103222146F1
:1024A000204698472046BDE81040102100F0E5B9CD
:1024B0007047F8B5064615460C468F18BC4206D044
:1024C000336814F8011B9B6830469847F6E72846A6
:1024D000F8BD0022007CFEF783BF0021007CFEF7E0
:1024E00087BF0021007CFEF78BBF0021007CFEF738
:1024F0008FBF0021007CFEF793BF10B50446142166
:1025000000F0BBF9204610BD10B5044608464FF454
:102510007A73A360044B0021207461602360FEF78E
:102520008FFF204610BD00BF245F0A0800231A4613
:102530001946007CFEF734BF13B50024007C0094DC
:10254000FEF736FFC0B202B010BD0123D2B2C9B24D
:10255000FFF7F2BF0022007CFEF732BFC9B2FFF7DF
:10256000F9BF0022007CFEF733BF0121FFF7F9BF5E
:102570000021007CFEF75CBF002211464068FEF798
:10258000F5BFF0B5164689B011220F46044600216A
:1025900003A801F084FC304601F0E3FC002500951F
:1025A00081B27B6803AA3046FEF78CFF20B1294632
:1025B0002046FFF7EDFD03E003A92046FFF7D6FD17
:1025C000204609B0F0BD002211464068FEF7EEBF7C
:1025D000002211464068FEF7F9BF00224068FEF76E
:1025E000EDBF002281F001014068FEF7D7BF002354
:1025F0001A4619464068FEF7C9BF002211464068D6
:10260000FEF7A4BF002202214068FEF7A7BF002307
:102610001A464068FEF792BF024B04225A60024AF3
:102620001A607047C80600204C5F0A0800231A464B
:102630004068FEF783BF002202214068FEF78EBF8C
:10264000002211464068FEF781BF00221146406813
:10265000FEF78CBF00231A4619464068FEF78EBF6E
:1026600000231A4619464068FEF790BF002281F009
:1026700001014068FEF792BF00224068FEF79EBF4E
:10268000002211464068FEF7A1BF002211464068B3
:10269000FEF78CBF70B516468EB0044608A8FFF74B
:1026A00057FD1122002103A801F0F9FB304601F08B
:1026B00058FC00250A4B009581B25B6803AA30469E
:1026C000FEF700FF20B129462046FFF761FD03E039
:1026D00003A92046FFF74AFD20460EB070BD00BF9B
:1026E000C8060020024B034A1A6000225A60704755
:1026F000D0060020805F0A0810B504460F48FFF797
:1027000033F828B1A4F10D03022B01D8002010BD2D
:1027100000F08EF8FFF72CFF08B1012CF6D9FFF777
:102720008DFEFFF788FE18B1A4F11203012BEDD93D
:10273000172C8CBF0020012010BD00BFD806002040
:10274000172838B504460D460AD8FF2908D0FFF7E8
:10275000D3FF28B129462046BDE83840FEF760BDCA
:1027600038BD38B504460D46FEF762FDFF2810D08F
:10277000062804D84D2323FA00F0C30709D42046C5
:10278000FFF7BAFF28B129462046BDE83840FEF7DA
:1027900057BD38BD10B50446FEF74AFD0438C0B237
:1027A000012808D92046FFF7A7FF20B12046BDE841
:1027B0001040FEF74DBD002010BD000070B50C4C60
:1027C0000C4E0D4D00212046FEF770FF20460B4CAD
:1027D0003246294600F04CF801212046FEF766FFFC
:1027E000324629462046BDE8704000F041B800BF9F
:1027F000D8060020B80000209D160A08E806002030
:1028000013B5084C00231A46194600932046FFF7DB
:10281000D5FC2046044A054902B0BDE8104000F04E
:1028200027B800BFFC060020B80000200D210A08D0
:1028300038B50B4D296811F001040FD12846FDF77A
:1028400032FC58B121460748FFF75EFE2846FDF7E7
:102850002FFC054A0549034800F00AF8014838BD35
:102860001407002018070020B8000020B1240A082F
:102870000B460146184601F0F5BAFDF712BC08B543
:10288000FEF7F4FE184B1A68D1075CBF01221A60EC
:10289000164B1A68D2075CBF01221A60144B1A68E3
:1028A000D0075CBF01221A60124B1A68D1075CBFC7
:1028B00001221A60104B1A68D2075CBF01221A600D
:1028C0000E4B1A68D0075CBF01221A600C4B1A68C5
:1028D000D1075CBF01221A600A4B1A68D2075CBF9D
:1028E00001221A60704700BF4807002044070020FB
:1028F000400700203C070020380700203407002054
:10290000300700202C070020244B1A68D0075CBF3A
:1029100001221A60224B1A68D1075CBF01221A609B
:10292000204B1A68D2075CBF01221A601E4B1A683E
:10293000D0075CBF01221A601C4B1A68D1075CBF2C
:1029400001221A601A4B1A68D2075CBF01221A6072
:10295000184B1A68D0075CBF01221A60164B1A6820
:10296000D1075CBF01221A60144B1A68D2075CBF02
:1029700001221A60124B1A68D0075CBF01221A604C
:10298000104B1A68D1075CBF01221A600E4B1A68FF
:10299000D2075CBF01221A60704700BF7807002091
:1029A00074070020700700206C07002068070020D3
:1029B00064070020600700205C0700205807002003
:1029C00054070020500700204C070020244B1A68B1
:1029D000D0075CBF01221A60224B1A68D1075CBF86
:1029E00001221A60204B1A68D2075CBF01221A60CC
:1029F0001E4B1A68D0075CBF01221A601C4B1A6874
:102A0000D1075CBF01221A601A4B1A68D2075CBF5B
:102A100001221A60184B1A68D0075CBF01221A60A5
:102A2000164B1A68D1075CBF01221A60144B1A6852
:102A3000D2075CBF01221A60124B1A68D0075CBF34
:102A400001221A60104B1A68D1075CBF01221A607C
:102A50000E4B1A68D2075CBF01221A60704700BF94
:102A6000A8070020A4070020A00700209C07002042
:102A70009807002094070020900700208C07002072
:102A80008807002084070020800700207C070020A2
:102A9000184B1A68D1075CBF01221A60164B1A68DE
:102AA000D2075CBF01221A60144B1A68D0075CBFC2
:102AB00001221A60124B1A68D1075CBF01221A600A
:102AC000104B1A68D2075CBF01221A600E4B1A68BD
:102AD000D0075CBF01221A600C4B1A68D1075CBF9B
:102AE00001221A600A4B1A68D2075CBF01221A60E1
:102AF000704700BFC8070020C4070020C00700209F
:102B0000BC070020B8070020B4070020B007002051
:102B1000AC0700202DE9F04F8BB01D46804689465A
:102B2000144600F059F82A4B064693F900A00F46C8
:102B3000BAF1FF3F2FD022462B462046294600F00F
:102B4000BDFD40BB42464B464046494600F0B6FDFF
:102B5000834600BB002200232046294600F07CFD6E
:102B6000C8B11C4A0123CDE90289CDE90445CDF85D
:102B700020B001920093BAF1000F11D1CDE906897E
:102B8000684600F047F9B0B1089BDBB9DDE9060102
:102B90000BB0BDE8F08F304639460BB0BDE8F08F82
:102BA000002200231046194600F018FCBAF1020F6B
:102BB000CDE90601E4D1FEF769FD21230360089BFE
:102BC000002BE3D0FEF762FD089B0360DEE700BF49
:102BD00014000020AC5F0A082DE9F84F23F00049EB
:102BE00052EA090620D001F00046834F81EA060828
:102BF000B84519DC57421743DFF814B249EAD777D2
:102C00005F45944610D8C8451D4682460446964600
:102C100012DC0FDB90420DD30ED1784BF60F03EB95
:102C2000C60393E8030005E000F0AEFA02460B4647
:102C300000F0D4FBBDE8F88FB8F5801F0EDAB8F1CC
:102C4000000F40F09C80BAF1000F53466C4909DD3B
:102C50005B00002B01F1FF31FADC03E04FEA285161
:102C6000A1F2FF31B9F5801F0EDAB9F1000F40F083
:102C70009F80BCF1000F6346614F09DD5B00002BB4
:102C800007F1FF37FADC03E04FEA2957A7F2FF37D5
:102C90005C4B994256DBC8F3130343F48013594A43
:102CA00097425EDBC5F3130545F48015C91B07E0A9
:102CB00052EA000313D0C30F03EB4203440001396F
:102CC000CEEB04005A1B89B1744538BF02F1FF32C4
:102CD000002AEDDAE20F02EB43036400EFE7474B13
:102CE000F60F03EBC60696E80300A3E71546744506
:102CF00038BF02F1FF35002DB4BF1D46CEEB0404F2
:102D000055EA0403EBD0404A954208DCE30F03EB9D
:102D10004505954207F1FF374FEA4404F6DD394B8C
:102D20009F424EDA374AD21B142A54DCC2F12003E8
:102D3000D44005FA03F3234345FA02F242EA0601BE
:102D4000184677E72F4C641A1F2C2BDCC4F12003A4
:102D500008FA04F82AFA03F343EA08030AFA04F427
:102D60009DE72848C01B1F2815DCC0F1200209FA86
:102D700000F52CFA02F215430CFA00FE96E74FEA32
:102D8000C823002B1F497FF76DAF5B00002B01F1BB
:102D9000FF31FADC66E71D4D4FF0000EED1B0CFA1B
:102DA00005F583E7194B00245B1A0AFA03F376E76B
:102DB000144F4FEAC9235B00002B07F1FF37FADC01
:102DC00066E7A5F580152E4307F2FF3746EA07535D
:102DD000204619462EE71F2A07DCC2F12003D44003
:102DE0009D4045EA04033246A8E7084B3246DB1B08
:102DF00045FA03F3A2E700BFFFFFEF7FB85F0A08C1
:102E0000EDFBFFFF02FCFFFFFFFF0F00E2FBFFFFF8
:102E10000000F07F0020704781F0004102E000BF19
:102E200083F0004330B54FEA41044FEA430594EA8A
:102E3000050F08BF90EA020F1FBF54EA000C55EAC5
:102E4000020C7FEA645C7FEA655C00F0E2804FEA96
:102E50005454D4EB5555B8BF6D420CDD2C4480EA78
:102E6000020281EA030382EA000083EA010180EAA8
:102E7000020281EA0303362D88BF30BD11F0004FF6
:102E80004FEA01314FF4801C4CEA113102D040422C
:102E900061EB410113F0004F4FEA03334CEA133367
:102EA00002D0524263EB430394EA050F00F0A7807F
:102EB000A4F10104D5F1200E0DDB02FA0EFC22FA7A
:102EC00005F2801841F1000103FA0EF2801843FA6E
:102ED00005F359410EE0A5F120050EF1200E012A5F
:102EE00003FA0EFC28BF4CF0020C43FA05F3C0189D
:102EF00051EBE37101F0004507D54FF0000EDCF116
:102F0000000C7EEB00006EEB0101B1F5801F1BD3BE
:102F1000B1F5001F0CD349085FEA30004FEA3C0CC2
:102F200004F101044FEA445212F5800F80F09A80B8
:102F3000BCF1004F08BF5FEA500C50F1000041EBBC
:102F4000045141EA050130BD5FEA4C0C404141EBC0
:102F5000010111F4801FA4F10104E9D191F0000FE7
:102F600004BF01460020B1FA81F308BF2033A3F16A
:102F70000B03B3F120020CDA0C3208DD02F1140C61
:102F8000C2F10C0201FA0CF021FA02F10CE002F19C
:102F90001402D8BFC2F1200C01FA02F120FA0CFC95
:102FA000DCBF41EA0C019040E41AA2BF01EB0451DE
:102FB000294330BD6FEA04041F3C1CDA0C340EDCDC
:102FC00004F11404C4F1200220FA04F001FA02F31F
:102FD00040EA030021FA04F345EA030130BDC4F1DD
:102FE0000C04C4F1200220FA02F001FA04F340EAD2
:102FF0000300294630BD21FA04F0294630BD94F083
:10300000000F83F4801306BF81F480110134013D69
:103010004EE77FEA645C18BF7FEA655C29D094EADA
:10302000050F08BF90EA020F05D054EA000C04BF58
:103030001946104630BD91EA030F1EBF0021002043
:1030400030BD5FEA545C05D14000494128BF41F0E2
:10305000004130BD14F580043CBF01F5801130BD46
:1030600001F0004545F0FE4141F470014FF00000D1
:1030700030BD7FEA645C1ABF194610467FEA655C82
:103080001CBF0B46024650EA013406BF52EA033524
:1030900091EA030F41F4002130BD00BF90F0000F12
:1030A00004BF0021704730B54FF4806404F132044E
:1030B0004FF000054FF0000150E700BF90F0000F07
:1030C00004BF0021704730B54FF4806404F132042E
:1030D00010F0004548BF40424FF000013EE700BFFE
:1030E00042004FEAE2014FEA31014FEA02701FBF8E
:1030F00012F07F4393F07F4F81F06051704792F060
:10310000000F14BF93F07F4F704730B54FF46074D9
:1031100001F0004521F0004120E700BF50EA010224
:1031200008BF704730B54FF000050AE050EA0102D1
:1031300008BF704730B511F0004502D5404261EB41
:1031400041014FF4806404F132045FEA915C3FF482
:10315000DCAE4FF003025FEADC0C18BF03325FEA1B
:10316000DC0C18BF033202EBDC02C2F1200300FAD0
:1031700003FC20FA02F001FA03FE40EA0E0021FAF5
:1031800002F11444C1E600BF70B54FF0FF0C4CF4DF
:10319000E06C1CEA11541DBF1CEA135594EA0C0F95
:1031A00095EA0C0F00F0DEF82C4481EA030621EAD0
:1031B0004C5123EA4C5350EA013518BF52EA03350B
:1031C00041F4801143F4801338D0A0FB02CE4FF0BD
:1031D0000005E1FB02E506F00042E0FB03E54FF0ED
:1031E0000006E1FB03569CF0000F18BF4EF0010EE5
:1031F000A4F1FF04B6F5007F64F5407404D25FEAE1
:103200004E0E6D4146EB060642EAC62141EA555193
:103210004FEAC52040EA5E504FEACE2EB4F1FD0CD5
:1032200088BFBCF5E06F1ED8BEF1004F08BF5FEA53
:10323000500E50F1000041EB045170BD06F0004605
:1032400046EA010140EA020081EA0301B4EB5C04B2
:10325000C2BFD4EB0C0541EA045170BD41F48011AA
:103260004FF0000E013C00F3AB8014F1360FDEBFCF
:10327000002001F0004170BDC4F10004203C35DAAB
:103280000C341BDC04F11404C4F1200500FA05F32E
:1032900020FA04F001FA05F240EA020001F00042CF
:1032A00021F0004110EBD37021FA04F642EB060145
:1032B0005EEA430E08BF20EAD37070BDC4F10C046F
:1032C000C4F1200500FA04F320FA05F001FA04F233
:1032D00040EA020001F0004110EBD37041F100011F
:1032E0005EEA430E08BF20EAD37070BDC4F120052A
:1032F00000FA05F24EEA020E20FA04F301FA05F292
:1033000043EA020321FA04F001F0004121FA04F239
:1033100020EA020000EBD3705EEA430E08BF20EA09
:10332000D37070BD94F0000F0FD101F00046400043
:1033300041EB010111F4801F08BF013CF7D041EAC5
:10334000060195F0000F18BF704703F000465200C9
:1033500043EB030313F4801F08BF013DF7D043EA9A
:103360000603704794EA0C0F0CEA135518BF95EA50
:103370000C0F0CD050EA410618BF52EA4306D1D1D7
:1033800081EA030101F000414FF0000070BD50EAF6
:10339000410606BF1046194652EA430619D094EA80
:1033A0000C0F02D150EA013613D195EA0C0F05D16A
:1033B00052EA03361CBF104619460AD181EA0301BE
:1033C00001F0004141F0FE4141F470014FF0000076
:1033D00070BD41F0FE4141F4780170BD70B54FF011
:1033E000FF0C4CF4E06C1CEA11541DBF1CEA135591
:1033F00094EA0C0F95EA0C0F00F0A7F8A4EB050473
:1034000081EA030E52EA03354FEA013100F0888069
:103410004FEA03334FF0805545EA131343EA126332
:103420004FEA022245EA111545EA10654FEA0026E7
:103430000EF000419D4208BF964244F1FD0404F5A0
:10344000407402D25B084FEA3202B61A65EB0305FC
:103450005B084FEA32024FF480104FF4002CB6EBB9
:10346000020E75EB030E22BFB61A754640EA0C0039
:103470005B084FEA3202B6EB020E75EB030E22BF79
:10348000B61A754640EA5C005B084FEA3202B6EBBA
:10349000020E75EB030E22BFB61A754640EA9C0079
:1034A0005B084FEA3202B6EB020E75EB030E22BF49
:1034B000B61A754640EADC0055EA060E18D04FEA07
:1034C000051545EA16754FEA06164FEAC30343EAA7
:1034D00052734FEAC2025FEA1C1CC0D111F4801F74
:1034E0000BD141EA00014FF000004FF0004CB6E76D
:1034F00011F4801F04BF01430020B4F1FD0C88BF0C
:10350000BCF5E06F3FF6AFAEB5EB030C04BFB6EB16
:10351000020C5FEA500C50F1000041EB045170BD09
:103520000EF0004E4EEA113114EB5C04C2BFD4EB36
:103530000C0541EA045170BD41F480114FF0000EBA
:10354000013C90E645EA060E8DE60CEA135594EA36
:103550000C0F08BF95EA0C0F3FF43BAF94EA0C0F39
:103560000AD150EA01347FF434AF95EA0C0F7FF4AE
:1035700025AF104619462CE795EA0C0F06D152EA02
:1035800003353FF4FDAE1046194622E750EA4106E6
:1035900018BF52EA43067FF4C5AE50EA41047FF4F7
:1035A0000DAF52EA43057FF4EBAE12E74FF0FF3C5C
:1035B00006E000BF4FF0010C02E000BF4FF0010C2D
:1035C0004DF804CD4FEA410C7FEA6C5C4FEA430CA6
:1035D00018BF7FEA6C5C1BD001B050EA410C0CBFF5
:1035E00052EA430C91EA030F02BF90EA020F002057
:1035F000704710F1000F91EA030F58BF994208BFBE
:1036000090422CBFD8176FEAE37040F0010070477A
:103610004FEA410C7FEA6C5C02D150EA013C07D1D1
:103620004FEA430C7FEA6C5CD6D152EA033CD3D01C
:103630005DF8040B704700BF8446104662468C4616
:103640001946634600E000BF01B5FFF7B7FF002849
:1036500048BF10F1000F01BD4DF808EDFFF7F4FF72
:103660000CBF012000205DF808FB00BF4DF808EDFD
:10367000FFF7EAFF34BF012000205DF808FB00BF20
:103680004DF808EDFFF7E0FF94BF012000205DF842
:1036900008FB00BF4DF808EDFFF7CEFF94BF0120F7
:1036A00000205DF808FB00BF4DF808EDFFF7C4FFF0
:1036B00034BF012000205DF808FB00BF4FEA410C39
:1036C0007FEA6C5C02D150EA013C0AD14FEA430C1C
:1036D0007FEA6C5C02D152EA033C02D14FF0000059
:1036E00070474FF0010070474FEA410212F5001297
:1036F00015D211D56FF47873B3EB625212D94FEA39
:10370000C12343F0004343EA505311F0004F23FA22
:1037100002F018BF404270474FF00000704750EA77
:10372000013005D111F0004008BF6FF00040704734
:103730004FF00000704700BF4A0011D212F500128E
:1037400011D20DD56FF47873B3EB62520ED44FEAF9
:10375000C12343F0004343EA505323FA02F0704779
:103760004FF00000704750EA013002D14FF0FF30B7
:1037700070474FF0000070474FEA4102B2F1E0435A
:1037800024BFB3F5001CDCF1FE5C0DD901F0004C48
:103790004FEAC0024CEA5070B2F1004F40EB830098
:1037A00008BF20F00100704711F0804F21D113F1C4
:1037B0003872BCBF01F00040704741F480114FEAFD
:1037C0005252C2F11802C2F1200C10FA0CF320FA86
:1037D00002F018BF40F001004FEAC1234FEAD323A3
:1037E00003FA0CFC40EA0C0023FA02F34FEA43030D
:1037F000CCE77FEA625307D150EA01331EBF4FF096
:10380000FE4040F44000704701F0004040F0FE40B0
:1038100040F40000704700BF80F0004002E000BFAD
:1038200081F0004142001FBF5FEA410392EA030FAB
:103830007FEA226C7FEA236C6AD04FEA1262D2EBF5
:103840001363C1BFD218414048404140B8BF5B42FA
:10385000192B88BF704710F0004F40F4000020F093
:103860007F4018BF404211F0004F41F4000121F0A9
:103870007F4118BF494292EA030F3FD0A2F10102F3
:1038800041FA03FC10EB0C00C3F1200301FA03F131
:1038900000F0004302D5494260EB4000B0F5000F54
:1038A00013D3B0F1807F06D340084FEA310102F113
:1038B0000102FE2A51D2B1F1004F40EBC25008BFC5
:1038C00020F0010040EA03007047490040EB00008F
:1038D00010F4000FA2F10102EDD1B0FA80FCACF1BE
:1038E000080CB2EB0C0200FA0CF0AABF00EBC250BD
:1038F00052421843BCBFD0401843704792F0000FAB
:1039000081F4000106BF80F400000132013BB5E7FD
:103910004FEA41037FEA226C18BF7FEA236C21D073
:1039200092EA030F04D092F0000F08BF08467047D8
:1039300090EA010F1CBF0020704712F07F4F04D1A6
:10394000400028BF40F00040704712F100723CBFB9
:1039500000F50000704700F0004343F0FE4040F4E3
:10396000000070477FEA226216BF08467FEA2363A1
:103970000146420206BF5FEA412390EA010F40F48C
:10398000800070474FF0000304E000BF10F00043D8
:1039900048BF40425FEA000C08BF704743F09643BF
:1039A00001464FF000001CE050EA010208BF7047DA
:1039B0004FF000030AE000BF50EA010208BF704761
:1039C00011F0004302D5404261EB41015FEA010C76
:1039D00002BF84460146002043F0B64308BFA3F16E
:1039E0008053A3F50003BCFA8CF2083AA3EBC25350
:1039F00010DB01FA02FC634400FA02FCC2F120026F
:103A0000BCF1004F20FA02F243EB020008BF20F0A5
:103A10000100704702F1200201FA02FCC2F120020B
:103A200050EA4C0021FA02F243EB020008BF20EA00
:103A3000DC7070474FF0FF0C1CEAD0521EBF1CEA2E
:103A4000D15392EA0C0F93EA0C0F6FD01A4480EA1C
:103A5000010C400218BF5FEA41211ED04FF0006305
:103A600043EA501043EA5111A0FB01310CF0004031
:103A7000B1F5000F3EBF490041EAD3715B0040EA57
:103A8000010062F17F02FD2A1DD8B3F1004F40EB27
:103A9000C25008BF20F00100704790F0000F0CF0FA
:103AA000004C08BF49024CEA502040EA51207F3ABE
:103AB000C2BFD2F1FF0340EAC250704740F4000099
:103AC0004FF00003013A5DDC12F1190FDCBF00F08A
:103AD00000407047C2F10002410021FA02F1C2F138
:103AE000200200FA02FC5FEA310040F1000053EAD4
:103AF0004C0308BF20EADC70704792F0000F00F022
:103B0000004C02BF400010F4000F013AF9D040EA27
:103B10000C0093F0000F01F0004C02BF490011F4BB
:103B2000000F013BF9D041EA0C018FE70CEAD153B9
:103B300092EA0C0F18BF93EA0C0F0AD030F0004C39
:103B400018BF31F0004CD8D180EA010000F00040ED
:103B5000704790F0000F17BF90F0004F084691F0AB
:103B6000000F91F0004F14D092EA0C0F01D14202E5
:103B70000FD193EA0C0F03D14B0218BF084608D1AE
:103B800080EA010000F0004040F0FE4040F40000F8
:103B9000704740F0FE4040F4400070474FF0FF0C8B
:103BA0001CEAD0521EBF1CEAD15392EA0C0F93EAD2
:103BB0000C0F69D0A2EB030280EA010C49024FEA24
:103BC000402037D04FF0805343EA111143EA1013DD
:103BD0000CF000408B4238BF5B0042F17D024FF495
:103BE000000C8B4224BF5B1A40EA0C00B3EB510F70
:103BF00024BFA3EB510340EA5C00B3EB910F24BF59
:103C0000A3EB910340EA9C00B3EBD10F24BFA3EBDD
:103C1000D10340EADC001B0118BF5FEA1C1CE0D1A5
:103C2000FD2A3FF650AF8B4240EBC25008BF20F058
:103C3000010070470CF0004C4CEA50207F32C2BFAC
:103C4000D2F1FF0340EAC250704740F400004FF049
:103C50000003013A37E792F0000F00F0004C02BF7A
:103C6000400010F4000F013AF9D040EA0C0093F044
:103C7000000F01F0004C02BF490011F4000F013B9E
:103C8000F9D041EA0C0195E70CEAD15392EA0C0F06
:103C900008D142027FF47DAF93EA0C0F7FF470AF3E
:103CA000084676E793EA0C0F04D14B023FF44CAF81
:103CB00008466EE730F0004C18BF31F0004CCAD116
:103CC00030F000427FF45CAF31F000437FF43CAF52
:103CD0005FE700BF4FF0FF3C06E000BF4FF0010C74
:103CE00002E000BF4FF0010C4DF804CD4FEA400256
:103CF0004FEA41037FEA226C18BF7FEA236C11D0A0
:103D000001B052EA530C18BF90EA010F58BFB2EB52
:103D1000030088BFC81738BF6FEAE17018BF40F0D2
:103D2000010070477FEA226C02D15FEA402C05D186
:103D30007FEA236CE4D15FEA412CE1D05DF8040B0B
:103D4000704700BF844608466146FFE70FB5FFF79E
:103D5000C9FF002848BF10F1000F0FBD4DF808ED56
:103D6000FFF7F4FF0CBF012000205DF808FB00BF47
:103D70004DF808EDFFF7EAFF34BF012000205DF8A1
:103D800008FB00BF4DF808EDFFF7E0FF94BF0120EE
:103D900000205DF808FB00BF4DF808EDFFF7D2FFEB
:103DA00094BF012000205DF808FB00BF4DF808ED2E
:103DB000FFF7C8FF34BF012000205DF808FB00BFFB
:103DC0004FEA4002B2F1FE4F0FD34FF09E03B3EB28
:103DD00012620DD94FEA002343F0004310F0004F68
:103DE00023FA02F018BF404270474FF000007047BE
:103DF00012F1610F01D1420205D110F0004008BF5D
:103E00006FF0004070474FF00000704742000ED244
:103E1000B2F1FE4F0BD34FF09E03B3EB126209D405
:103E20004FEA002343F0004323FA02F070474FF0BB
:103E30000000704712F1610F01D1420202D14FF030
:103E4000FF3070474FF00000704700BF002100F0C6
:103E5000F3BE0A22002100F07DBF0A22002100F0FB
:103E600079BF000010B5054C13462CB10A46014637
:103E70000220AFF3008010BD204610BD00000000FE
:103E8000004870478000002010B5431E0A4491424C
:103E900004D011F8014B03F8014FF8E710BD0346B9
:103EA0000244934202D003F8011BFAE77047000076
:103EB00038B5124B05461C68A36BD3B91820FDF723
:103EC000B5FB43F20E33A06303804AF6CD33438043
:103ED00041F2342383804EF26D63C3804DF6EC6370
:103EE0000381052343810B23838101220023C0E941
:103EF0000423A36B00221D615A6138BD7C000020A1
:103F0000C9B2034610F8012B1AB19142F9D11846F3
:103F1000704700290CBF184600207047034611F86F
:103F2000012B03F8012B002AF9D17047024B0146FF
:103F3000186800F003B800BF7C00002070B506468A
:103F400008460C4600F00DF8451C29463046FDF7A2
:103F500095FB064618B12A462146FFF795FF3046E5
:103F600070BD034613F8012B002AFBD1181A013843
:103F7000704730B582B1451E013915F8013F11F87F
:103F8000014FA34206D1EC431444E04201D0002B80
:103F9000F3D11C46181B30BD104630BD034610B58A
:103FA00042B111F8014B013A03F8014B002CF7D153
:103FB0001A4400E010BD934202D003F8014BFAE727
:103FC00010BDF0B5037863B90B78002B18BF002043
:103FD000F0BD15F8012F62B114F8017F3046974209
:103FE000F7D00346461C007810B14D1E5C1EF0E76A
:103FF000F0BD1846F0BD2DE9F0410F46904601F0A6
:1040000095FC04460D46B8F1000F11D0C7F30A53D2
:10401000C3F16B03002B0BDD1B0503F17F5500245F
:1040200005F5401522462B46FFF7AEF8BDE8F081B6
:1040300020462946BDE8F0812DE9F04F82460C4626
:104040009DB00023139218934FF000084FF0000921
:104050001791179B1A780D2A05D8092A13D2002A1E
:1040600000F0AD8112E02B2A04D02D2A04D0202AA2
:104070000CD108E0002200E001220C925A1C179299
:104080005B782BB99BE101331793E2E700230C9394
:10409000179D2B78302B5CD16B78582B01D0782B67
:1040A0004CD10C9BA84A019318AB009317A919ABEC
:1040B000504600F0A4FE10F00706044600F0858587
:1040C000062E05D10135002317950C9300F07DBD18
:1040D000189A3AB135211AA801F00FFD18995046E7
:1040E00001F094F9062E22D8DFE806F0040D081836
:1040F0001D0D04004FF00009C84618E0DDF8688087
:10410000DDF86C9013E01B9B199A23F4801302F2E4
:104110003342DDF8688043EA025908E0DFF82C9268
:104120004FF0000803E06FF000494FF0FF3821071F
:1041300040F14B8549F0004900F047BD179B5A1CE0
:1041400017925B78302BF9D0002B00F03E850123CD
:1041500000E000230593179B0A22069300239B4649
:1041600002930493179D2E78A6F13003D9B2092942
:1041700011D8BBF1080FD5BF0499029902FB013396
:1041800002FB013305F10105D4BF049302930BF147
:10419000010B1795E6E75046FFF772FE0768504699
:1041A000FFF76EFE0068FFF7DCFE39460246284640
:1041B000FFF7DFFE074628B1002033465D46024682
:1041C00001465AE05046FFF75BFE0068FFF7C9FE64
:1041D000179B1A1817921B5CBBF1000F45D158466C
:1041E000302B05D1179B01305A1C17925B78F7E7EB
:1041F000A3F13102082A46D8179A069202460020F7
:104200000546303B00F1010129D00A44294605EB5F
:10421000000C0A2661450FD0013101F1FF3EBEF1CD
:10422000080F03DC049F77430497F3E71029DEBFF0
:10423000029F77430297EDE72844082800F1010523
:1042400005DC04980A2101FB0033049306E0102DDD
:10425000DFBF02980A2101FB003302930021179B64
:10426000581C17905B78084602E05D4638463A468F
:10427000A3F130010929C4D90121652B01D0452BB7
:104280004FD16DB904E0652B40F0AD8400220121CF
:1042900028B9059B002B00F09280054600E0002520
:1042A000179C631C179363782B2B06D02D2B02D001
:1042B0000026039606E0012300E000230393A31CDD
:1042C0001793A378A3F13006092E29D8302B04D1F7
:1042D000179B5E1C17965B78F8E7A3F13106082E52
:1042E0001FD8A3F1300E179B1F46179B5E1C179615
:1042F0005B78A3F1300CBCF1090F05D80A2606FB48
:104300000E3EAEF1300EF0E7F61B082E44F61F66A7
:1043100002DC7645A8BF7646039F1FB1764201E0D6
:1043200017940026002D52D1002840F04E84059AA3
:10433000002A40F04A84002941D14E2B20D007DCCE
:10434000492B0AD03BE000BF34610A080000F07F2F
:10435000692B02D06E2B13D031E0AA4917A800F0C8
:104360007FFF60B3179BA849013B17A8179300F084
:1043700077FF10B9179B01331793DFF8A8921AE063
:10438000A24917A800F06CFFC8B1179B1B78282B17
:104390000FD11AAA9E4917A800F075FF052808D169
:1043A0001B9BDDF8688043F0FF4949F4E00900F009
:1043B0000CBCDFF874924FF0000800F006BC139BB1
:1043C0001794002B00F00C8400230C93FFE32C4681
:1043D000BBF1000F08BFAB460498102DA8BF1024F6
:1043E000B71AFEF75BFE092C8046894613DD894B20
:1043F00003EBC40353E91223FEF7C6FE804602987E
:104400008946FEF74BFE02460B4640464946FEF7FC
:1044100009FD804689460F2D33DC002F00F0D5833F
:1044200022DD162F07DC7B4D424605EBC7014B46CC
:10443000D1E9000113E0C5F125039F4221DC754C51
:10444000C5F10F0504EBC5017D1B4246D1E9000112
:104450004B4604EBC504FEF797FED4E90023FEF7B4
:1044600093FE80468946B0E317F1160F09DB694DCC
:104470004046A5EBC703D3E900234946FEF7AEFF4C
:10448000EFE72C1B3C44002C5DDD14F00F010AD03B
:10449000604B424603EBC101D1E900014B46FEF7F8
:1044A00073FE8046894634F00F0400F0C180B4F5F5
:1044B0009A7F0FDD4FF0000BCDF808B0CDF814B0A7
:1044C000CDF810B02223CAF80030DFF858914FF031
:1044D000000889E14046494600234F4E24110293CB
:1044E000012C0CDDE20704D5D6E90023FEF74CFED3
:1044F0000123029A6410013202920836F0E70BB1F0
:1045000080468946444B029AA9F1547903EBC201D3
:10451000D1E9000142464B46FEF736FE21F000434A
:1045200089460A461B0D3D491B058B428046C1D872
:10453000A1F580118B4286BFDFF8F0904FF0FF3875
:1045400002F1547974E073D0644214F00F020AD07F
:10455000304B404603EBC2034946D3E90023FEF744
:104560003DFF80468946241162D01F2C08DD4FF0A4
:10457000000BCDF808B0CDF814B0CDF810B02CE198
:104580004046494614F0100F0CBF00236A23244E06
:1045900003930023002C09DDE20704D5D6E90023AC
:1045A000FEF7F2FD012364100836F3E70BB18046F5
:1045B0008946039BEBB1C9F30A53C3F16B03002B8C
:1045C000494616DD1F2B0EDD342BDEBF203B4FF09E
:1045D000FF3202FA03F34FF00008CCBF4FF05C79D2
:1045E00003EA010905E04FF0FF3202FA03F303EAA0
:1045F00008080022002340464946FFF72DF800280E
:10460000B5D117E048610A084B610A0851610A08F0
:1046100054610A0890610A0858620A080000A07CE8
:1046200068610A080000F07F0000F8FFFFFFEF7FDD
:1046300000230393049B5A46009306992B46504649
:1046400000F036FF059000283FF434AF002FC7F18B
:104650000003A8BF00230D934FF0000B27EAE77378
:104660001293CDF808B0059B5046596800F099FEAA
:10467000049000283FF426AF059B0C301A6903F123
:104680000C0102329200FFF7FFFB1AAB019319AB4A
:10469000009342464B465046CDE9088901F0B7F9F0
:1046A000189000283FF40EAF0121504600F08BFF18
:1046B000029000283FF406AF199B0399002BACBF72
:1046C0000D9A129A1A9CACBFD618D21AA3EB01030A
:1046D0002344B14903F1FF33ACBF129A0D9E8B42C4
:1046E000C4F1360480F28580C91A1F29C8BFAB4DBA
:1046F0004FF00107D4BF07FA01F3ED1AA4EB010450
:10470000D9BF0793002507FA05F507973719039BCB
:10471000BE4214441C443346A8BF3B46A342A8BF34
:104720002346002BC2BFFF1AE41AF61A0D9B002B7A
:1047300063D1002F7ADC129B002B40F08180002C8B
:1047400000F38880002E00F38F80049A1899504659
:1047500001F08DF8834600283FF4B4AEC36800240E
:10476000C4600299069301F066F8A04280F28B8043
:10477000069B002B40F00282B8F1000F40F0FE8152
:10478000C9F31303002B40F0F98129F000431B0DFE
:104790001B05B3F1D66F40F2F181DBF81430002B2A
:1047A0006CD059460122504600F0F4FF029983462E
:1047B00001F041F8002840F3E18129F00043039A19
:1047C0001B0D1B05002A00F08D80B3F1D66F00F39E
:1047D0008980B3F15C7F00F3D38122234FF000087E
:1047E0004FF00009CAF80030059B002B40F0D9813A
:1047F000EBE101230025079388E71A46029950460A
:1048000000F07AFF029000283FF45CAE0146189A4F
:10481000504600F0E1FE069000283FF453AE189990
:10482000504600F0F3FD069B189382E73A4618992C
:10483000504600F0AFFF189000287FF47CAF41E6AF
:10484000129A0499504600F057FF049000287FF414
:1048500076AF37E622460499504600F09BFF04905D
:1048600000287FF46FAF2DE632460299504600F0E3
:1048700091FF029000287FF468AF23E6DBF8103048
:10488000012B8EDC7AE161D1069AC9F3130322B3BE
:1048900043494A468B422ED1039B414663B1414B6B
:1048A0001340B3F1D46F07D81B0DC3F16B034FF066
:1048B000FF3000FA03F301E04FF0FF338B421AD1CF
:1048C00039498A4202D101333FF4FCAD354B4FF0F8
:1048D0000008134003F5801950E163B9B8F1000FE7
:1048E00009D16AE7A3F580136FEA13594FF0FF3837
:1048F0006FEA095942E115B115EA090F02E0079B79
:1049000013EA080F00F03A81069B039A4046494695
:1049100053B1FFF770FB02460B46DDE90801FEF7D5
:1049200081FA8046894629E1FFF765FB02460B467E
:10493000DDE90801FEF774FA00220023804689466B
:10494000FEF78AFE00287FF448AF17E10299584627
:1049500001F0ABF800224FF0804306460F46FEF709
:104960008FFE00283FD0069B13B100260F4F10E0AA
:10497000B8F1000F03D1C9F313033BB91AE0B8F142
:10498000010F03D1B9F1000F3FF427AF084F002604
:104990000024064D3CE000BF02FCFFFFE2FBFFFFEE
:1049A000FFFF0F000000F07FFFFFEF7F0000F03FF0
:1049B0000000F0BF00229A4B30463946FEF756FE03
:1049C00040B90022974B30463946FEF7DDFB0446DE
:1049D0000D4601E0069C934D05F100431494159398
:1049E000DDE9146714E08F4B002230463946FEF7AC
:1049F000CBFB069B04460D4623B901F100430E9004
:104A00000F9303E002460B46CDE90E23DDE90E6766
:104A100029F000431B0D1B050793079A824B9A420E
:104A20002BD1DDE90823A9F1547940464946CDE967
:104A30000A2300F07BFF02460B4630463946FEF75C
:104A4000A3FB42464B46FEF7EDF921F000431B0D58
:104A5000764A1B05934280460CD9754B0B9A9A42B5
:104A600003D10A9B01333FF42DADDFF8C4914FF021
:104A7000FF3872E001F1547939E0039B3BB3079BA7
:104A8000B3F1D46F23D85EA3D3E90023204629468F
:104A9000FEF7F6FDB8B129462046FEF74DFE002888
:104AA00008BF0120FEF7FAFA069B04460D4623B91B
:104AB00001F100431090119303E002460B46CDE94B
:104AC0001023DDE91067079A07F1D6639F1ADDE925
:104AD000080100F02BFF02460B4630463946FEF730
:104AE00053FBDDE90823FEF79DF980468946039BC9
:104AF0009BBB29F000431B0D079A1B059A424E46AB
:104B00002BD129462046FEF7EFFDFEF7D7FA0B46DC
:104B1000024629462046FEF783F9069B04460D46C9
:104B20002BB9B8F1000F02D1C9F313067EB136A339
:104B3000D3E9002320462946FEF798FD88BB34A31D
:104B4000D3E9002320462946FEF7AEFD04E032A358
:104B5000D3E90023FEF78AFD18BB1899504600F0F0
:104B600055FC0499504600F051FC0299504600F063
:104B70004DFC5946504600F049FC74E5039B83B157
:104B80002C4B40460B9300230A934946DDE90A2348
:104B9000FEF7FAFA8046894619B910B92223CAF8F5
:104BA00000301899504600F031FC0499504600F04E
:104BB0002DFC0299504600F029FC0599504600F062
:104BC00025FC5946504600F021FC139B13B1179B5E
:104BD000139A13600C9B1BB1424609F1004307E096
:104BE00042464B4604E000252A460121FFF747BB19
:104BF000104619461DB0BDE8F08F00BFAFF300802E
:104C00000000C0FFFFFFDF419535A094FFFFDF3FAD
:104C100035E5AF350000E03F9535A094FFFFCF3F6D
:104C20000000F03F0000E03F0000E07FFFFF9F7CBE
:104C3000FFFFEF7F00005039024B0A46014618681B
:104C4000FFF7FAB97C0000202DE9F0470F468046B7
:104C50003F48D0F800903D4615F8014B09EB0400A1
:104C6000407800F0080000F0FF0608B12F46F2E798
:104C70002D2C03D1BD1C7C78012603E02B2C04BF16
:104C80007C78BD1C13B1102B0AD15BE0302C57D1BE
:104C9000287800F0DF0058284DD16C7810230235B9
:104CA000002E14BF4FF0004C6FF0004CBCFBF3FA29
:104CB0000027384603FB1ACC09EB040E9EF801E0EE
:104CC0001EF0040F01D0303C0BE01EF0030E1BD091
:104CD000BEF1010F0CBF4FF0370E4FF0570ECEEB69
:104CE0000404A34210DDB7F1FF3F0AD0504506D8B7
:104CF00001D1644503DC03FB0040012701E04FF0D4
:104D0000FF3715F8014BD7E77B1C0CD1002E4FF075
:104D1000220314BF4FF000406FF00040C8F800308D
:104D20002AB9BDE8F08706B1404272B107B1691EE9
:104D30001160BDE8F0873024002BB1D10823AFE724
:104D40000A23ADE7302CA3D0AAE7BDE8F08700BF67
:104D50001800002013460A46014602480068FFF783
:104D600073BF00BF7C000020F0B506694B11B34251
:104D700000F1140527DA11F01F0105EB860605EB9B
:104D8000830201D1294616E0141D55F823202B4635
:104D9000C1F1200ECA40B44209D2276807FA0EF7C3
:104DA0003A4343F8042B54F8042BCA40F3E71A6043
:104DB00052B1043308E0B2420B4605D252F8043B2C
:104DC00041F8043BF7E72B465B1B9B10036103B9DB
:104DD0004361F0BDA0F13003092B01D820380AE06F
:104DE000A0F16103052B01D8473804E0A0F141038D
:104DF000052B02D82738C0B27047002070472DE934
:104E0000F04F8BB08A46904606930290FFF738F831
:104E100003684FF0000B18460393FFF7A2F8039BBB
:104E20000190034413F8013C0793DAF80030023391
:104E30001F4613F8010B302802D10BF1010BF7E7E5
:104E4000FFF7C8FF0446E0B9019A03993846FFF717
:104E500090F8002834D1019BF85CFE18FFF7BAFFE8
:104E600080B3334618781F46302803F10103F9D088
:104E7000FFF7B0FFB0FA80F534466D094FF0010B33
:104E800001E000252C463A46164630780132FFF7FD
:104E9000A1FF0028F8D1019A03993046FFF769F87D
:104EA00050B954B9019BF4182246164630780132A5
:104EB000FFF790FF0028F8D134B1A41BA40003E051
:104EC0003E4600E0044601253378502B01D0702B7C
:104ED0002AD173782B2B08D02D2B03D0711C4FF0C7
:104EE000000905E04FF0010901E04FF00009B11C95
:104EF0000878FFF76FFF431EDBB2182B14D8A0F120
:104F0000100211F8010FFFF765FF431EDBB2182BEB
:104F100004D80A2303FB0202103AF2E7B9F1000FAA
:104F200000D05242144400E03146CAF800102DB1BE
:104F3000BBF1000F14BF002006207CE12946F31BC3
:104F4000013B072B02DD01315B10FAE7029800F00C
:104F500028FA4FF000090546CB46019B00F1140AE0
:104F6000C3F10103CDF810A00893B7422FD2731EEE
:104F70000593079A16F8013C93420BD0BBF1200F22
:104F800016D1049BC3F8009004334FF0000904933A
:104F9000CB460DE0059B089A13449F42EED8184675
:104FA000019A03990993FEF7E4FF099B68B1E5E7CD
:104FB00016F8010CFFF70EFF00F00F0000FA0BF0DF
:104FC000059B49EA00090BF1040B1E46CDE7049846
:104FD00040F8049BCAEB0000801028614701484656
:104FE00000F0A4FAD8F80060381AB04226DD871B1A
:104FF0003946284600F09BFDC8B17B1E591103F0CD
:105000001F024FF001095AF8211009FA02F20A4270
:105010000ED04B4502DC4FF0020909E0B91E2846CC
:1050200000F085FD0028F6D04FF0030900E081462E
:1050300039462846FFF798FE3C440CE009DA371A57
:1050400029463A46029800F0A5FB0546E41B00F10C
:10505000140A4FF00009D8F808309C4208DD029885
:10506000294600F0D3F9149A00231360A320E2E04C
:10507000D8F80400844253DA041BA6422EDCD8F888
:105080000C30022B1AD0032B1CD0012B1DD1A642B1
:105090001BD1012E0BDCD8F80430069A6220136075
:1050A00001232B61CAF80030149B1D60C3E0711E00
:1050B000284600F03CFD0028EDD106E0159B002BB2
:1050C000E9D002E0159B002BE5D10298294600F0BB
:1050D0009DF9149A002313605020ACE0671EB9F1CB
:1050E000000F06D13FB13946284600F020FD814629
:1050F00001E04FF001097A11012307F01F0703FABD
:1051000007F75AF8223021461F42284618BF49F0B7
:105110000209361BFFF728FE0227D8F8044000E0FA
:105120000127B9F1000F00F08180D8F80C30022B74
:105130000ED0032B10D0012B76D119F0020F73D0B3
:10514000DAF8000049EA000919F0010F07D16BE015
:10515000159BC3F101031593159B002B64D0D5F863
:1051600010A005F114034FEA8A0903EB090100209E
:105170001A68B2F1FF3F02D001321A6020E043F812
:10518000040B9942F4D8AB689A4512DB696802981F
:10519000013100F006F983462A6905F10C0102325B
:1051A00092000C30FEF770FE2946029800F02EF9AE
:1051B0005D462B695A1C2A6105EB830301225A6163
:1051C000022F05F1140211D1D8F80030013B9E42A4
:1051D00027D17111012306F01F0603FA06F652F8D3
:1051E00021301E420CBF022701271AE02B699A4585
:1051F0000ADA01212846FFF7B7FDD8F80830013454
:105200009C423FF72CAF0BE016F01F0608D09144EC
:1052100059F8040C00F08AF9C6F12006B042E8DB28
:10522000012747F0200701E047F010073846149B9C
:105230001D60069B1C600BB0BDE8F08FC2F1080238
:10524000920070B5C2F120064368056803FA06F4BF
:105250002C43D340046040F8043F8842F4D370BD2F
:1052600030B5036811F8014B01334CB11A78A2F143
:105270004105192D98BF2032A242F3D0002030BD45
:105280000360012030BD0B682DE9F04F5E1102EB89
:10529000860613F01F0318BF0436351F1746002279
:1052A0008246A8462C46914685B0D0F800B00193BE
:1052B00046F8042C00921BF8011F00293CD0084638
:1052C00003920291FFF786FD039A00BB0299202901
:1052D00016D8009B9945EEDD444505D2072A03DC2C
:1052E00041462046FFF7AAFFBC4223D90023A4F180
:1052F000040844F8043CCDF8009044461A46DAE726
:10530000292948D10BF10103CAF8003014E0013219
:10531000082A09F1010906DDBC42CCD9002344F872
:10532000043C0122043C216800F00F0040EA011017
:105330002060C0E70822BEE7B9F1000F2BD044453A
:1053400005D2072A03DC41462046FFF777FFBC421F
:105350000CD93B4654F8042BA54243F8042BF9D250
:10536000002243F8042B9D42FBD20BE0019B4BB182
:10537000C3F120024FF0FF33D34056F8042C134002
:1053800046F8043C2B6843B9BD4202D101232B608F
:1053900003E0043DF6E7042000E0052005B0BDE889
:1053A000F08F70B5456A04460E463DB91020FCF7F3
:1053B0003DF96062456085600560C560656AEB68BF
:1053C00043B1636ADB6853F8260078B1026843F89A
:1053D000262017E021220421204600F0CAFB636A40
:1053E000E860DB68002BECD1002070BD012101FAE0
:1053F00006F56A1D9200204600F0BBFB0028F3D0A2
:105400004660856000230361C36070BD70B5446A67
:1054100006460D463CB91020FCF708F9706244605E
:1054200084600460C4603DB1736A6A68DB6853F8E5
:105430002210296043F8225070BD2DE9F041064644
:105440000C460D691F4601F1140E0023DEF8000022
:10545000013381B202FB0171000C0F0C02FB0070E2
:1054600089B201EB00419D424FEA10474EF8041B00
:10547000ECDCD7B1A3689D4212DB61683046013194
:10548000FFF78FFF8046226904F10C01023292007F
:105490000C30FEF7F9FC21463046FFF7B7FF4446D3
:1054A00004EB850301355F6125612046BDE8F0818D
:1054B0002DE9F843064615461F46092208330C46D7
:1054C00093FBF2F3002101229A4202DA52000131E9
:1054D000FAE73046FFF765FF089B092D43614FF05F
:1054E0000103036111DD04F10908C1462C4419F8D8
:1054F000013B0146303B0A223046FFF79EFFA145A3
:10550000F5D108EB0504083C01E00A3409252D1B00
:1055100063199F4208DD14F8013B0146303B0A2223
:105520003046FFF78AFFF3E7BDE8F883030C1B045E
:1055300013B90004102300E0002310F07F4F04BFD4
:105540000002083310F0704F04BF0001043310F064
:10555000404F04BF80000233002803DB420003D524
:10556000581C70471846704720207047036813F096
:1055700007020BD0D90722D49A074BBF5B089B08C0
:10558000036003604CBF01200220704799B209B943
:105590001B0C102213F0FF0F04BF1B0A083219075F
:1055A00004BF1B090432990704BF9B080232D907C4
:1055B00002D45B0805D0013203601046704700201A
:1055C00070472020704710B50C460121FFF7E9FE17
:1055D00001224461026110BD2DE9F74F14460A69AA
:1055E000236988469A42BEBF0B46A0461C46D8F89F
:1055F0001070D4F81090D8F80830D8F8041007EBE1
:1056000009069E42C8BF0131FFF7CBFE00F1140529
:105610002B4605EB860C0022634502D243F8042B8F
:10562000FAE704F1140208F1140102EB890301EB1B
:1056300087070093009B0192934257D9B2F800B0BC
:10564000BBF1000F23D08946AE464FF0000859F851
:10565000044BBEF800A0A3B20BFB03A34FEA144A0D
:10566000DEF8004043444FEA14480BFB0A84F2463C
:1056700004EB13449BB243EA04434F454FEA1448FA
:105680004AF8043B01D9D646E1E7CEF80480019BF5
:105690000432B3F802A0BAF1000F21D02C4689469B
:1056A0002B684FF00008B9F800E0B4F802B09BB2E4
:1056B0000AFB0EBEA346F04443EA08434BF8043B02
:1056C00059F8043BB4F804E01B0C0AFB03E34F4514
:1056D00003EB18434FEA134801D95C46E3E76360E4
:1056E0000435A7E75CF8043D13B9013E002EF9DC50
:1056F000066103B0BDE8F08F2DE9F843154612F0BE
:10570000030206460F4607D0214C013A002354F805
:105710002220FFF792FE0746AD1036D0746A3CB9DE
:105720001020FBF783FF7062446084600460C460F3
:10573000D6F82480D8F808404CB940F271213046A0
:10574000FFF741FF04460023C8F8080003604FF04C
:105750000008EB070AD5394622463046FFF73CFFE2
:10576000814639463046FFF751FE4F466D100CD04A
:10577000206808B10446ECE7224621463046FFF790
:105780002BFF2060C0F80080F4E73846BDE8F883BE
:1057900080620A082DE9F0470C46074691462669C3
:1057A0004FEA621A56444968A368751CAB4202DA94
:1057B00001315B00FAE73846FFF7F3FD002380462E
:1057C0001A4600F11401534503DA41F8232001334E
:1057D000F9E72AEAEA73206901EB830319F01F094C
:1057E00004F1140101EB800E14D0C9F1200C002249
:1057F00008689A4600FA09F0024343F8042B51F86E
:10580000042B8E4522FA0CF2F2D8CAF8042042B1D9
:10581000B51C06E0043B51F8042B8E4543F8042FD9
:10582000F9D8013D3846C8F810502146FFF7EEFD83
:105830004046BDE8F08703690A6910B59B1A11D18B
:1058400092001430143183180A4453F8044D52F86E
:10585000041D8C4202D007D3012010BD9842F4D31E
:10586000002010BD184610BD4FF0FF3010BD2DE9CF
:10587000F8430C460746114620461546FFF7DBFF66
:10588000061E08D131463846FFF78BFD0123036120
:105890004661BDE8F883BCBF23462C4638466168A4
:1058A000BABF1D4601260026FFF77BFD2B69C660A7
:1058B000266905F1140904F1140101EB860709EBCF
:1058C000830800F114054FF0000C51F8042B59F82F
:1058D000044B93B29C44A3B2240CC3EB0C03C4EB63
:1058E000124202EB23429BB24FEA224CC84543EAE4
:1058F00002428E4645F8042BE7D8BE450ED25EF82C
:10590000041B8AB26244131403EB114392B242EABD
:1059100003424FEA234C45F8042BEEE755F8043DCB
:105920000BB9013EFAE70661BDE8F883104B0B4066
:10593000A3F15073002B02DD0020194670475B4233
:105940001B15132B4FF000004FF0000104DC4FF447
:10595000002242FA03F17047143B1E2B4FF0010264
:10596000CEBF1346C3F11F0302FA03F31846704774
:105970000000F07FF8B5056900F1140606EB850517
:1059800055F8044C2F1F2046FFF7D0FDC0F120032F
:105990000A280B6014DCC0F10B0E24FA0EF1BE4293
:1059A00041F07F5334BF55F8081C0021153004FA2C
:1059B00000F021FA0EF143F4401340EA010223E023
:1059C000BE423ABFA5F1080755F8081C00210B3864
:1059D00015D08440C0F1200544F07F5444F44014B5
:1059E000B74221FA05FE44EA0E038CBF57F8044C77
:1059F000002401FA00F0EC4040EA040204E00A4608
:105A000044F07F5343F4401310461946F8BD2DE986
:105A1000F3411C4601219046089E099DFFF7C1FCF9
:105A2000C4F31302C4F30A5407460CB142F48012C3
:105A30000192B8F1000F19D002A840F8088DFFF7C5
:105A400095FD009B48B1019AC0F1200102FA01F1D5
:105A50000B43C2407B61019200E07B61019B002B04
:105A600014BF02210121BB61396107E001A8FFF7E2
:105A70007DFD019B01217B613961203034B1A4F2AD
:105A8000334404443460C0F1350009E0A0F23240F0
:105A900007EB810330601869FFF748FDC0EB411048
:105AA0002860384602B0BDE8F0812DE9F74388460A
:105AB00069468146FFF75EFF0D46044601A9404650
:105AC000FFF758FF0F460646D9F81030D8F81020D7
:105AD00020469A1A9DE80A00C91A01EB4213002BCE
